:020000040800F2
:10000000F8040020A90100083F1400089D11000811
:100010003D140008A10200082D1B0008000000008C
:100020000000000000000000000000006314000851
:10003000A302000800000000611400086514000815
:10004000C3010008C3010008C3010008C301000880
:10005000C3010008C3010008A5020008C30100088D
:10006000C3010008C3010008D5020008C30100084D
:10007000C3010008C3010008C3010008C301000850
:10008000C3010008C3010008C3010008000000000C
:10009000000000000000000000000000F502000861
:1000A000C3010008C3010008C3010008C301000820
:1000B000C30100085515000885150008C301000894
:1000C000C3010008C3010008C3010008C301000800
:1000D000C3010008C3010008BD1A000800000000A9
:1000E000C3010008C3010008C301000800000000AC
:1000F000000000000000000000000000C301000834
:1001000000000000C3010008C3010008C30100088B
:1001100000000000000000000000000000000000DF
:10012000C3010008C3010008C3010008C30100089F
:10013000C3010008000000000000000000000000F3
:10014000000000000000000000000000C3010008E3
:10015000C3010008C3010008C3010008C30100086F
:10016000C3010008C30100080000000000000000F7
:10017000000000000000000000000000000000007F
:1001800000000000C30100080000000000000000A3
:10019000C3010008DFF80CD000F070F800480047F9
:1001A000191F0008F8040020064880470648004749
:1001B000FEE7FEE7FEE7FEE7FEE7FEE7FEE7FEE717
:1001C000FEE7FEE701150008950100082DE9F05F44
:1001D0000546002092469B468846064681464024B6
:1001E0001BE0284641464746224600F036F8534673
:1001F0005A46C01A914110D311461846224600F0C3
:100200001DF82D1A67EB01084F46224601200021F8
:1002100000F014F817EB00094E41201EA4F1010470
:10022000DFDC484631462A464346BDE8F09F421C83
:1002300010F8011B0029FBD1801A7047202A04DB2B
:10024000203A00FA02F1002070479140C2F12003E9
:1002500020FA03F3194390407047202A04DB203A28
:1002600021FA02F00021704721FA02F3D040C2F1D6
:10027000200291400843194670470000064C074D84
:1002800006E0E06840F0010394E807009847103466
:10029000AC42F6D3FFF782FF28220008482200086C
:1002A000FEE7704770B5012000F098F8064CA07882
:1002B000002808D10125A570044800F023FD04485A
:1002C00000F020FDE57070BD14000020300000201B
:1002D0006C00002010B5102000F080F804480221C6
:1002E000017000214170142141600121C17010BDD5
:1002F000140000202DE9F04123480168234C8B06AF
:100300004FF005074FF001054FF0020204D52023FE
:1003100003602570627067604E064FF000034FF077
:10032000140C05D54026066023706270C4F804C022
:100330000E0605D58026066022706370C4F804C0DE
:100340005FEAC15E4FF4807603D506602270657067
:10035000676089054FF4007704D5076023706270E9
:10036000C4F804C0202000F039F8402000F036F82E
:10037000802000F033F8304600F030F8384600F0C6
:100380002DF8E570BDE8F081143C01401400002018
:1003900090F83510022903D0802141650120704773
:1003A000052180F835100068016821F00101016025
:1003B0000020704770B5044600F0EAF80546601C5E
:1003C00002D004480078044400F0E2F8401BA04248
:1003D000FAD370BD0000002070470000044910B53A
:1003E0000A68024202D00860FFF7F6FF10BD000065
:1003F000143C01402DE9F84FDFF860B100224FF0C6
:1004000001084FF0030A4FF00F090BF1040E00BF73
:100410000B6808FA02F42340A3426ED14D68022D06
:1004200001D0122D0ED1D50800EB850CDCF8205040
:100430005607F70E09FA07F6B5430E69BE402E437C
:10044000CCF82060066855000F790AFA05FC07F021
:10045000030726EA0C06AF40374307604E68012EBB
:1004600005D0022E03D0112E01D0122E0ED1866897
:10047000CF6826EA0C06AF40374387604668A6433C
:100480000C79C4F30014944034434460C6688C680B
:1004900026EA0C06AC403443C4604C68E40056D5F0
:1004A0002F4C256845F480452560246822F003051B
:1004B00004F4804400942B4C2E19D6F80848950774
:1004C0002F0F09FA07F5AC43274DA84201D10025AB
:1004D00015E0264DA84201D1012510E0244DA84287
:1004E00001D102250BE0234DA84201D1032506E0EE
:1004F000214DA84202D1042501E028E00725BD4096
:100500002543C6F80858DBF800405D464E689C431A
:10051000F60300D51C432C60DEF8004075464E689B
:100520009C43B60300D51C432C600C4D08352C6849
:100530004E689C43F60200D51C432C60074D0C35D9
:100540002C684E689C43B60200D51C432C60521C9C
:10055000102AFFF45DAFBDE8F88F0000003C0140B9
:1005600044380240003001400000024000040240D4
:1005700000080240000C02400010024042694A405C
:10058000426170470AB1816170470904FBE70000CE
:100590000148806870470000000000200248816820
:1005A0000278114481607047000000200B4810B5AC
:1005B000016841F400710160016841F480610160EB
:1005C000016841F480710160032000F081F800208F
:1005D00000F006F800F024F8002010BD003C0240B6
:1005E00070B50D4D04464FF47A712878B1FBF0F0E8
:1005F0000A490968B1FBF0F000F007FB48B9102C7C
:1006000007D200222146501E00F042F800206C6004
:1006100070BD012070BD0000000000200C00002013
:1006200010B5032000F054F8002211466FF00B00C3
:1006300000F02EF8002211466FF00A0000F028F8B2
:10064000002211466FF0090000F022F80022114646
:10065000501F00F01DF800221146101F00F018F87E
:1006600000221146901E00F013F80022BDE8104051
:100670001146501E00F00CB800F01F0201219140FD
:100680004009800000F1E020C0F800117047000030
:10069000F0B40E4B1B680C46C3F30223C3F10705ED
:1006A000042D00D90425191D072901D2002300E0DB
:1006B000DB1E012606FA05F1491E214099409E40A5
:1006C000761E16403143F0BC00F0BABE0CED00E0DF
:1006D000064900F0070208684FF6FF03184040EA99
:1006E0000220034A10430860704700000CED00E050
:1006F0000000FA052DE9F0470E46050065D0DFF849
:100700001481D8F80000F7B200F00F00B04207D211
:1007100088F80070D8F8000000F00F00B04254D103
:1007200028683D4C810712D5400703D5206840F466
:10073000E05020602878000703D5206840F460402E
:1007400020602068A96820F0F00008432060287825
:10075000C0072DD0304968680839012812D0022816
:1007600013D0032811D00968890700292DDA2168E0
:1007700021F0030101432160FFF70AFF814641F2A6
:10078000883A0EE009688903EFE709688901ECE718
:10079000FFF7FEFEA0EB0901514502D90320BDE899
:1007A000F0872068696800F00C00B0EB810FEFD192
:1007B000D8F80010404601F00F01B14207D9077088
:1007C000006800F00F00B04201D00120E7E7287870
:1007D000400705D52068E96820F4E0500843206010
:1007E0002878000706D52068296920F4604040EA8F
:1007F000C100206000F03CF82168084AC1F30311F1
:10080000515CC840064908600020FFF7E9FE00205F
:10081000C5E70000003C02400838024010220008F2
:100820000C00002001480068704700000C00002008
:100830000448054900680968044AC1F38221515CF3
:10084000C84070470C0000200838024020220008F1
:100850000448054900680968044AC1F34231515C03
:10086000C84070470C0000200838024020220008D1
:10087000154810B5006810F00C02144813D0144944
:10088000042A0FD0082A0ED10F4C241F2268236897
:1008900002F03F025B0207D52068C0F38810A0FB7E
:1008A000010106E0084610BD2168C1F38811A1FBD3
:1008B00000010023FFF78AFC2168C1F30141491CB4
:1008C0004900B0FBF1F010BD083802400024F400EC
:1008D00040787D012DE9F84F050076D02878DFF8C3
:1008E000F8B2BE4CC00749D0DBF800105846C1F33F
:1008F0008101012908D00068C0F3810002280AD1D3
:10090000201D0068400206D52068800336D568683F
:100910000028E2D032E06868B0F5803F10D0B0F532
:10092000A02F206810D020F480302060206820F4B0
:10093000802020606868A0B1FFF72AFE06460CE020
:10094000206840F48030F4E740F480202060F7E72E
:10095000FFF71EFE801B642873D820688003F7D53C
:100960000CE0FFF715FE064605E000BFFFF710FE9E
:10097000801B6428F0D820688003F7D42878DFF83B
:10098000608280074FF000093ED5DBF80010584622
:1009900011F00C0F09D00068C0F3810002280BD1C0
:1009A0008D48001F0068400206D42068800715D5D6
:1009B000E868012809D111E0E868B8B10120C8F859
:1009C0000000FFF7E5FD064605E002E1FFF7E0FD68
:1009D000801B0228C0D820688007F7D520682969C5
:1009E00020F0F80040EAC10020600DE0C8F8009057
:1009F000FFF7CEFD064604E0FFF7CAFD801B022884
:100A00001FD820688007F7D42878000722D5724EB7
:100A1000744869696C3671B101210160FFF7B8FD56
:100A2000074604E0FFF7B4FDC01B022809D8306870
:100A30008007F7D50EE0C0F80090FFF7A9FD074644
:100A400005E083E0FFF7A4FDC01B02287ED83068D4
:100A50008007F7D42878400768D5DFF87CA1002705
:100A60000AF1380ADAF80000C0000BD4DAF80010F6
:100A700041F08051CAF80010DAF80000012700F0B8
:100A800080500090584E3068C00510D4306840F453
:100A900080703060FFF77CFD009005E0FFF778FD87
:100AA0000099401A022851D83068C005F6D54A4E40
:100AB000A868683601280FD00528306810D020F0CB
:100AC00001003060306820F004003060A868B8B1E0
:100AD000FFF75EFD00900FE0306840F00100F4E7A2
:100AE00040F004003060F7E7FFF752FD0099411A2B
:100AF00041F28830814264D830688007F4D50EE036
:100B0000FFF746FD009007E0FFF742FD0099411A0C
:100B100041F28830814254D830688007F4D42FB134
:100B2000DAF8001021F08051CAF80010A869C0B3AB
:100B3000DBF80010C1F3810102294AD0022848469F
:100B400007D0C8F86000FFF723FD00E039E0054654
:100B50003AE04746C8F86000FFF71AFD064604E091
:100B6000FFF716FD801B02282BD820688001F7D4E0
:100B7000D5E907010843A96A1C4A490802EB01416B
:100B80006A6A41EA8211084395F82C1040EA016133
:100B90001148001F016001203866FFF7F9FC054687
:100BA00005E014E0FFF7F4FC401B022809D8206898
:100BB0008001F7D50BE000BFFFF7EAFC401B0228DD
:100BC00002D90320BDE8F88F20688001F4D400200A
:100BD000F8E70120F6E7000008380240003802403C
:100BE00000004742800E4742007000400000FFFFB7
:100BF0004FF0E0210428086903D020F004000861C8
:100C0000704740F00400FAE7704710B5401EB0F19D
:100C1000807F01D3012010BD4FF0E02460610F21DF
:100C2000601700F00DFC0020A0610720206100206B
:100C300010BD10B5FFF7E8FF10BD7047704730B525
:100C400090F83820012A20D0012280F83820022391
:100C500080F8393003685C6824F070045C600368D5
:100C60005C680D682C435C6003689C6824F0800419
:100C70009C6003689C6849680C439C6080F839203C
:100C8000002180F83810084630BD022030BD10B574
:100C9000040003D094F8390010B107E0012010BD22
:100CA000002084F83800204600F00CF8022084F878
:100CB0003900211D206800F09FFC012084F83900D4
:100CC000002010BD08B50C4A01680C48914207D1BC
:100CD000016841F002010160006800F0020009E0D3
:100CE000074A914207D1016841F0040101600068A0
:100CF00000F00400009008BD0004004040380240AD
:100D0000000800400168CA6842F00102CA60006839
:100D1000016841F0010101600020704770B5044690
:100D200090F83800012817D0012584F838500220A7
:100D300084F839002068826822F0770222F47F422A
:100D400082600868502837D00DDC202859D005DC97
:100D500088B3102841D151E0022070BD302853D013
:100D600040283AD13FE060282ED070280BD0B0F553
:100D7000805F03D0B0F5005F2FD110E0206881685C
:100D800021F0070115E0CB68D1E90121206800F0CE
:100D90007BFC2168886840F0770088601DE0CB68A4
:100DA000D1E90121206800F06FFC2068816841F4DE
:100DB0008041816011E01EE0CA684968206800F047
:100DC00075FC5021206806E0CA684968206800F078
:100DD0007EFC6021206800F061FC84F8395000201E
:100DE00084F8380070BDCA684968206800F05EFC6D
:100DF00040212068EFE700212068ECE710212068FF
:100E0000E9E720212068E6E730212068E3E7704722
:100E100070B50446006801694FF00005C9438907B1
:100E200015D4C168C943890711D4E91E01610120A5
:100E30002076206880698007204602D0FFF7E7FF10
:100E400004E000F098F8204600F096F82576206837
:100E50000169C943490717D4C168C943490713D475
:100E60006FF004010161022020762068806910F48F
:100E7000407F204602D0FFF7CAFF04E000F07BF875
:100E8000204600F079F8257620680169C9430907F2
:100E900016D4C168C943090712D46FF00801016173
:100EA000042020762068C0698007204602D0FFF722
:100EB000AEFF04E000F05FF8204600F05DF8257614
:100EC00020680169C943C90617D4C168C943C90666
:100ED00013D46FF010010161082020762068C069EA
:100EE00010F4407F204602D0FFF791FF04E000F0AD
:100EF00042F8204600F040F8257620680169C94391
:100F0000C90708D1C168C943C90704D1891E016155
:100F1000204600F032F820680169C943090609D467
:100F2000C168C943090605D46FF0800101612046FC
:100F3000FFF783FE20680169C943490609D4C168E7
:100F4000C943490605D46FF040010161204600F015
:100F500015F820680169C94389060BD4C168C943E3
:100F6000890607D46FF0200101612046BDE870407A
:100F7000FFF764BE70BD7047704770477047704799
:100F800070B5026804461068D168536910F00F0FFD
:100F900050D003F0010501F4907635435DD0C207CF
:100FA00005D0CA0503D5E26B42F00102E2634207B5
:100FB00005D5DA0703D0E26B42F00202E263820752
:100FC00005D5DA0703D0E26B42F00402E2630207C0
:100FD00005D5DA0703D0E26B42F00802E263E26B68
:100FE000002A33D0800604D5880602D5204600F0BA
:100FF00096FB20684069E16BC0F38010090700D4BC
:1010000028B3204600F07DFB2068416949061AD5C7
:10101000416921F040014161606BA0B11B4901654C
:10102000606BFFF7B5F9002810D0606B016DBDE86B
:1010300070400847830610D58B060ED52046BDE8C4
:10104000704000F06CBB2046FFF799FF70BD204652
:10105000FFF795FF0020E06370BD030606D50B0681
:1010600004D52046BDE8704000F0F6BC4006F3D53C
:101070004806F1D5D168204621F04001D1602021F9
:1010800084F8391000F089F870BD0000F3160008EC
:1010900070B5040004D094F83900002510B106E0C2
:1010A000012070BD84F83850204600F023F8242039
:1010B00084F839002068C16821F40051C1602046DD
:1010C00000F074FB2068016921F4904101612068FF
:1010D000416921F02A0141612068C16841F4005151
:1010E000C160E563202084F8390084F83A000020CC
:1010F00070BD000000B50068124987B088421ED15B
:101100001148016841F4003101600068694600F44B
:101110000030059060200090022001900120029094
:1011200003200390072004900848FFF763F900228A
:1011300001212620FFF7ACFA2620FFF79DFA07B021
:1011400000BD00000044004040380240000C024056
:1011500090F83A30202B1DD1D1B1CAB190F8383077
:10116000012B17D081628285C2850021C1632222B2
:1011700080F83A2080F8381001684A6942F001028C
:101180004A610068C16841F49071C16000207047F5
:10119000012070470220704770477047FEE700004B
:1011A000F0B589B00C460F49DDE9106591F800E013
:1011B0000021DDE90EC705910691CDE9003C0791BC
:1011C00008911346BEF1000F02972246014601D056
:1011D000012000E00020CDE9036500F043FE09B0E6
:1011E000F0BD00001C0000202DE9F04F624887B0E0
:1011F0000024016841F010010160016801F0100154
:101200000591016841F004010160016801F00401E9
:101210000591016841F080010160016801F08001E1
:101220000591016841F001010160016801F00101CF
:101230000591016841F002010160016801F00201BD
:101240000591016841F00801016000684B4F00F012
:101250000800059000223F213846FFF793F9DFF898
:101260002091012202214846FFF78CF9DFF814B1E2
:1012700000220F215846FFF785F901220F2142482D
:10128000FFF780F94FF4FE4A002251463F48FFF72E
:1012900079F93F2000900125CDE90154694638468F
:1012A0000394FFF7A7F84FF6C0700326CDE90006B8
:1012B000694602943846FFF79DF84FF6FC70CDE979
:1012C0000006694602944846FFF794F8304F0095AF
:1012D000CDE9017469464846FFF78CF84FF00208E3
:1012E000CDF80080CDE90154694648460394FFF7E4
:1012F00081F84FF00F09CDF80090CDE9015469460F
:1013000058460394FFF776F84FF6F070CDE90006E3
:10131000694602945846FFF76DF8CDF80090CDE984
:101320000154694618480394FFF764F84FF4744079
:10133000CDE90006694602941348FFF75BF8CDF843
:1013400000A0CDE90154694610480394FFF752F814
:1013500048F29F00CDE90006694602940B48FFF76A
:1013600049F84FF47C708DE8810169460648FFF723
:1013700041F807B0BDE8F08F30380240001002405D
:10138000000802400000024000040240000C02403D
:101390000000111010B5134886B01149016040F2E9
:1013A0003F610024C0E901144FF49671C0E90314B1
:1013B000FFF76DFC00B1FEE74FF4805000906946E6
:1013C0000848FFF7ABFC00B1FEE7049404A9054808
:1013D0000594FFF734FC002800D0FEE706B010BDEE
:1013E000000400403000002010B5134886B01149B9
:1013F000016040F23F610024C0E9011440F6C411CD
:10140000C0E90314FFF743FC00B1FEE74FF480503E
:10141000009069460848FFF781FC00B1FEE704949C
:1014200004A905480594FFF70AFC002800D0FEE750
:1014300006B010BD000800406C000020FEE77047B9
:101440000907090E002806DA00F00F0000F1E0207D
:1014500080F8141D704700F1E02080F800147047F8
:101460007047704710B5FFF799F8BDE81040FFF7D7
:10147000E0BB000010B5204892B00024016841F0A4
:1014800080510160006800F0805011901B48016895
:1014900021F4404141F4004101600068069400F4E9
:1014A00040401190022000900120039010200490F1
:1014B0006846FFF70FFA00B1FEE70F20CDE90C04F4
:1014C0000E940F9400210CA81094FFF713F900B1AB
:1014D000FEE7FFF7A7F94FF47A71B0FBF1F0FFF7E1
:1014E00094FB0420FFF784FB00221146501EFFF7F7
:1014F000CFF812B010BD000040380240007000402C
:101500001048016841F4700101600F48016841F022
:10151000010101600C4A00210832116002680B4B86
:101520001A400260031D0A4A1A60026822F48022EF
:10153000026005480C300160024958068039086095
:101540007047000088ED00E000380240FFFFF6FE23
:101550001030002410B50948FFF75AFC00F0C8FB12
:101560000748C178012907D10021C17000F0A8FD0A
:10157000BDE8104000F0DEBD10BD000030000020CE
:101580001400002010B51948FFF742FC18484FF02E
:1015900001024168491E41600BD005291BD0142966
:1015A00009D00021C170BDE8104002211148FEF7AA
:1015B000E5BF14214160037803215B1CB3FBF1F408
:1015C00001FB1433037043785B1CB3FBF1F401FBA4
:1015D0001431417007E0017811B1417811B102E096
:1015E000027000E04270C270DDE700006C00002075
:1015F0001400002000080240F0B502681B4B1C4C90
:101600009F031C4D1C4E984207D0B84205D0A04203
:1016100003D0A84201D0B04204D122F0700C4A6835
:1016200042EA0C02984210D0B8420ED0A0420CD030
:10163000A8420AD0B04208D0104CA04205D0104CAD
:10164000A04202D00F4CA04203D122F44074CA68D9
:10165000224302608A68C2620A688262984201D1AB
:101660000969016301214161F0BD000000000140F2
:101670000004004000080040000C00400040014011
:10168000004401400048014010B5846842EA03224A
:1016900024F47F440A432243826010BD826822F012
:1016A00070020A4342F007018160704710B5036A77
:1016B000046A24F001040462846924F0F00444EA1A
:1016C000021423F00A020A438461026210BD10B5BD
:1016D000036A23F0100303628369046A23F47043EE
:1016E00043EA023224F0A00343EA0111826101625D
:1016F00010BD10B5806B0021C185C184FFF73FFC90
:1017000010BD0168CA6822F49072CA6001684A6913
:1017100022F001024A61202180F83A10704710B58A
:1017200090F83A10222901D0022010BD8168B1F54D
:10173000805F11D00169002901681FD0496801F05C
:101740007F03816A4A1C82620B70C18D491E0904A5
:10175000090CC18518D026E00269816A002A026856
:10176000526805D0D2B20A80816A491C8162ECE7D6
:10177000C2F308020A80816A891CF7E74A68816A15
:101780004B1C83620A70E0E70168CA6822F4907219
:10179000CA6001684A6922F001024A61202180F88A
:1017A0003A10FFF7F9FC002010BD00002DE9F041D0
:1017B00004460068016921F44052E1681143016167
:1017C0002168C86849F20C6290432369A268E56900
:1017D0001A4363692B431A430243CA60216848696C
:1017E00020F44072A06910434861E1696425B1F5B5
:1017F000004F9748974A21684FF032083FD09142F6
:1018000001D081427CD1FFF723F800EBC00101EB4E
:10181000001061688900B0FBF1F6FFF719F800EBE2
:10182000C00101EB001061688900B0FBF1F0B0FB72
:10183000F5F06FF01801484306EB800108EB01104A
:10184000B0FBF5F000F0F006FFF702F800EBC00186
:1018500001EB001061688900B0FBF1F0B0FBF5F01E
:1018600006EB0016FEF7F4FF00EBC00101EB0010E1
:1018700061688900B0FBF1F7FEF7EAFFD2E0914220
:1018800001D081423DD1FEF7E3FF00EBC00101EB47
:10189000001061684900B0FBF1F0B0FBF5F0060103
:1018A000FEF7D6FF00EBC00101EB001061684900B4
:1018B000B0FBF1F7FEF7CCFF00EBC00101EB00102D
:1018C00061684900B0FBF1F0B0FBF5F06FF0180172
:1018D000484307EB800108EBC100B0FBF5F000F0D6
:1018E000F80006EB4006FEF7B3FF00EBC00101EB8A
:1018F000001061684900B0FBF1F7FEF7A9FF3CE07A
:1019000055E0FEF795FF00EBC00101EB00106168A8
:101910004900B0FBF1F0B0FBF5F00601FEF788FFDF
:1019200000EBC00101EB001061684900B0FBF1F76A
:10193000FEF77EFF00EBC00101EB0010616849007B
:10194000B0FBF1F0B0FBF5F06FF01801484307EB86
:10195000800108EBC100B0FBF5F000F0F80006EBE9
:101960004006FEF765FF00EBC00101EB0010616867
:101970004900B0FBF1F7FEF75BFF00EBC00101EBA4
:10198000001061684900B0FBF1F0B0FBF5F06FF0BA
:101990001801484307EB800108EBC100B0FBF5F0EC
:1019A00000F00700216830448860BDE8F081FEF750
:1019B0003FFF00EBC00101EB001061688900B0FB44
:1019C000F1F6FEF735FF00EBC00101EB0010616896
:1019D0008900B0FBF1F0B0FBF5F06FF0180148435F
:1019E00006EB800108EB0110B0FBF5F000F0F0060B
:1019F000FEF71EFF00EBC00101EB001061688900DB
:101A0000B0FBF1F0B0FBF5F006EB0016FEF710FFAF
:101A100000EBC00101EB001061688900B0FBF1F739
:101A2000FEF706FF00EBC00101EB001061688900C2
:101A3000B0FBF1F0B0FBF5F06FF01801484307EB95
:101A4000800108EB0110B0FBF5F000F00F00A9E7F2
:101A5000001401400010014090F83910212901D0F4
:101A6000022070478168B1F5805F016A0BD04A1C83
:101A70000262026809785160C18C491E0904090C90
:101A8000C1840ED017E009880268C1F308015160D3
:101A900001690029016A02D0491C0162ECE7891C36
:101AA000FBE70168CA6822F08002CA600068C1686A
:101AB00041F04001C16000207047000070B5184837
:101AC000FFF75EFA17480022022106781423052545
:101AD00015480124672E11D006DC312E0ED0322E8F
:101AE0000FD0332E13D10FE0722E0AD0792E0ED1E3
:101AF00001E043600BE00470417007E00270417048
:101B0000F7E701704270F4E7017044704560C470FB
:101B1000BDE87040012203490148FFF719BB0000EE
:101B2000A80000201000002014000020FEE702E0C2
:101B300008C8121F08C1002AFAD170477047002058
:101B400001E001C1121F002AFBD1704730B54B4C98
:101B500085B00D46012903D9A17841F00801A17093
:101B600000F14003024665714021002000F09EFA1A
:101B7000607828B1012D03D1A07840F00400A07056
:101B800000F026F9012002250190039521783C48B8
:101B90000029E2880188638941EA0201228942EA38
:101BA000030241EA0201428841EA0201828841EAD5
:101BB000020101D0C08808E0C288114302891143A4
:101BC000428911438289C0891143014300916946CA
:101BD000E068FEF70FFC3220FEF7ECFB0022E18804
:101BE000E068FEF7CFFC00226189E068FEF7CAFCDE
:101BF0002189FF2903D00022E068FEF7C3FCA0780A
:101C0000C10615D4032000F0CFFA0520FEF7D2FB61
:101C1000032000F0C9FA0520FEF7CCFB032000F0FA
:101C2000C3FA0120FEF7C6FB022000F0BDFA13E064
:101C300040F0200000F02FF80520FEF7BBFBA07855
:101C400040F0200000F027F80120FEF7B3FBA07859
:101C500040F0200000F01FF8A07840F0200000F0D5
:101C60001AF80420E07000F0A7F800F00BF82571D6
:101C7000062000F010F805B030BD00001C00002068
:101C8000E800002010B5012000F005F8BDE8104084
:101C90000220FEF78FBB002100F0D2B92DE9F04100
:101CA00010F0010600F0020500F0040400F0080244
:101CB00000D0012605B1012504B1012402B10122A1
:101CC0000A4F01213846FEF75DFC224602213846C4
:101CD000FEF758FC2A4604213846FEF753FC3246EC
:101CE0003846BDE8F0410821FEF74CBC0004024034
:101CF0002DE9F0412E48042644680178254611B1AB
:101D0000407810B102E0641F00E0651FDFF8A48096
:101D100000220F214046FEF735FC01220E214046ED
:101D2000FEF730FC0A27B4FBF7F007FB1040FFF783
:101D3000B5FFB4FBF7F43046FEF73CFB00220F2161
:101D40004046FEF71FFC01220D214046FEF71AFC1B
:101D5000B4FBF7F007FB1040FFF7A0FF3046FEF79B
:101D600029FB00220F214046FEF70CFC01220B212B
:101D70004046FEF707FCB5FBF7F007FB1050FFF7F6
:101D80008DFFB5FBF7F43046FEF714FB00220F2160
:101D90004046FEF7F7FB012207214046FEF7F2FB23
:101DA000B4FBF7F007FB1040BDE8F041FFF776BF4A
:101DB00014000020000002400449C87840F00400EC
:101DC000C87040F00800FFF766BF00001C0000204C
:101DD0001D4808B51D4AC1681D48914207D10168D8
:101DE00041F001010160006800F0010009E0194ABA
:101DF000914208D1016841F002010160006800F0E1
:101E00000200009008BD144A914207D1016841F0D8
:101E100004010160006800F00400F2E70F4A9142FB
:101E200007D1016841F008010160006800F0080076
:101E3000E7E70B4A9142E5D1016841F010010160EA
:101E4000006800F01000DCE71C00002000000240E9
:101E5000303802400004024000080240000C0240FA
:101E6000001002402DE9F05F0AAC94E8E05F0F4CEF
:101E7000E28023816581E1600D490E804F80A1F8E9
:101E80000480A1F80690A1F808A0A1F80AB0A1F872
:101E90000CC0A1F80EE008B1002000E01020A070F6
:101EA000BDE8F05F02211020FFF750BE1C000020AB
:101EB000E800002010B50021084600F0E3F806A075
:101EC00000F08CF80121002000F0DCF8BDE81040A3
:101ED00009A000F083B80000466972737420747220
:101EE0006166666963206C6967687420697320475E
:101EF0005245454E00000000536563636F6E6420D9
:101F000074726166666963206C69676874206973BE
:101F100020524544000000001FB5FEF747FBFFF7C5
:101F2000A9FAFFF761F9FFF75FFAFFF733FA2848DC
:101F300026490C2201604FF4165141600021816056
:101F4000C160C0E904128161C161FFF7A1F800B16D
:101F5000FEE7002211460620FEF79AFB0620FEF758
:101F60008BFB002202210A20FEF792FB0A20FEF7DB
:101F700083FB002202211720FEF78AFB1720FEF7C1
:101F80007BFB002203211E20FEF782FB1E20FEF7B2
:101F900073FB00220F211D20FEF77AFB1D20FEF7A8
:101FA0006BFB01220B490A48FFF7D2F84FF480433C
:101FB0005A10511048108DE80F0043108210C110C4
:101FC0000548FFF7EDF8FFF775FFFEE70044004016
:101FD000A800002010000020000C024070B500286E
:101FE0000FD00446FEF723F90546002606E000BFA1
:101FF00014F8010B012100F023F8761C6D1EF7D2B6
:10200000304670BD10B50D4C00226189E068FEF7C6
:10201000B9FA0120FEF7CEF901226189E068FEF7E6
:10202000B1FA0120FEF7C6F900226189E068FEF7E7
:10203000A9FABDE810400120FEF7BCB91C00002041
:1020400070B50F4C05460A46E188E068FEF79AFA3B
:102050002189FF2903D00022E068FEF793FAA078D7
:10206000C00604D52846BDE8704000F0B7B828097E
:1020700000F09AF82846BDE8704000F095B80000DE
:102080001C000020042900D30321074A5279914201
:1020900001D3521ED1B2044A1032515C0844C0B27E
:1020A00040F08000FFF7F7BD1C00002010B5034C86
:1020B00020706170A270E37010BD00002C00002041
:1020C00010B5144C002238212046FEF75BFA00219F
:1020D0001720FFF7D7FF1048007868B1012811D00A
:1020E000022815D10DA0FFF779FF01220821204613
:1020F000BDE81040FEF746BA0AA0FFF76FFF0122C5
:102100002021F4E709A0FFF769FF01221021EEE783
:1021100010BD000000100240140000205245442071
:1021200020200000475245454E20000059454C4CA8
:102130004F57000010B5144C002207212046FEF72F
:1021400021FA01211920FFF79DFF1048407868B15E
:10215000012811D0022815D10DA0FFF73FFF012261
:1021600011462046BDE81040FEF70CBA0AA0FFF762
:1021700035FF01220421F4E709A0FFF72FFF012218
:102180000221EEE710BD0000001002401400002004
:102190005245442020200000475245454E20000073
:1021A00059454C4C4F5700002DE9F041094E0A4F5C
:1021B0000546002425FA04F000F0010236F8141058
:1021C000F868FEF7DFF9641C042CF3DBBDE8F0418E
:1021D000FFF718BFE80000201C0000202DE9F041A7
:1021E000094E0A4F0546002425FA04F000F00102CA
:1021F00036F81410F868FEF7C5F9641C082CF3DBF8
:10220000BDE8F041FFF7FEBEE80000201C00002002
:102210000000000000000000010203040607080996
:102220000000000001020304482200080000002012
:10223000300000002E1B000878220008300000202B
:10224000C80400003E1B0008010000001000000050
:10225000000000000024F400000000000002000163
:102260001400000001000000000000000000000059
:08227000000000000000000066
:040000050800019559
:00000001FF
