:020000040800F2
:1000000090040020A901000887100008730E000862
:100010008510000891020008EB12000800000000A3
:10002000000000000000000000000000AB1000080D
:100030009302000800000000A9100008AD1000089D
:10004000C3010008C3010008C3010008C301000880
:10005000C3010008C301000895020008C30100089D
:10006000C3010008C3010008C3010008C301000860
:10007000C3010008C3010008C3010008C301000850
:10008000C3010008C3010008C3010008000000000C
:10009000000000000000000000000000C301000894
:1000A000C3010008C3010008C3010008C301000820
:1000B000C301000899110008BD110008C301000820
:1000C000C3010008C3010008C3010008C301000800
:1000D000C3010008C3010008C301000800000000BC
:1000E000C3010008C3010008C301000800000000AC
:1000F000000000000000000000000000C301000834
:1001000000000000C3010008C3010008C30100088B
:1001100000000000000000000000000000000000DF
:10012000C3010008C3010008C3010008C30100089F
:10013000C3010008000000000000000000000000F3
:10014000000000000000000000000000C3010008E3
:10015000C3010008C3010008C3010008C30100086F
:10016000C3010008C30100080000000000000000F7
:10017000000000000000000000000000000000007F
:1001800000000000C30100080000000000000000A3
:10019000C3010008DFF80CD000F068F80048004701
:1001A000691400089004002006488047064800476C
:1001B000FEE7FEE7FEE7FEE7FEE7FEE7FEE7FEE717
:1001C000FEE7FEE745110008950100082DE9F05F04
:1001D0000546002092469B468846064681464024B6
:1001E0001BE0284641464746224600F02FF853467A
:1001F0005A46C01A914110D311461846224600F0C3
:1002000016F82D1A67EB01084F46224601200021FF
:1002100000F00DF817EB00094E41201EA4F1010477
:10022000DFDC484631462A464346BDE8F09F202A97
:1002300004DB203A00FA02F1002070479140C2F13D
:10024000200320FA03F3194390407047202A04DB6F
:10025000203A21FA02F00021704721FA02F3D0403F
:10026000C2F120029140084319467047064C074DE1
:1002700006E0E06840F0010394E807009847103476
:10028000AC42F6D3FFF78AFF98140008B8140008B0
:10029000FEE7704710B5012000F024F80F4C022152
:1002A000204600F0EFF830B120460022BDE81040B3
:1002B000022100F0F0B8012205E00121204600F003
:1002C000E1F820B900220221204600F0E4F80121E3
:1002D000204600F0D7F80028EFD110BD00080240FA
:1002E00070470000044910B50A68024202D0086055
:1002F000FFF7F6FF10BD0000143C01402DE9F84F58
:10030000DFF860B100224FF001084FF0030A4FF010
:100310000F090BF1040E00BF0B6808FA02F423402A
:10032000A3426ED14D68022D01D0122D0ED1D508F9
:1003300000EB850CDCF820505607F70E09FA07F69B
:10034000B5430E69BE402E43CCF8206006685500C8
:100350000F790AFA05FC07F0030726EA0C06AF40FE
:10036000374307604E68012E05D0022E03D0112EB0
:1003700001D0122E0ED18668CF6826EA0C06AF4057
:10038000374387604668A6430C79C4F30014944051
:1003900034434460C6688C6826EA0C06AC4034439B
:1003A000C4604C68E40056D52F4C256845F4804560
:1003B0002560246822F0030504F4804400942B4C4B
:1003C0002E19D6F8084895072F0F09FA07F5AC4300
:1003D000274DA84201D1002515E0264DA84201D1A4
:1003E000012510E0244DA84201D102250BE0234D48
:1003F000A84201D1032506E0214DA84202D10425DF
:1004000001E028E00725BD402543C6F80858DBF881
:1004100000405D464E689C43F60300D51C432C60AB
:10042000DEF8004075464E689C43B60300D51C4379
:100430002C600C4D08352C684E689C43F60200D5A4
:100440001C432C60074D0C352C684E689C43B6024B
:1004500000D51C432C60521C102AFFF45DAFBDE890
:10046000F88F0000003C0140443802400030014059
:10047000000002400004024000080240000C02405C
:10048000001002400069084000D001207047426916
:100490004A40426170470AB1816170470904FBE735
:1004A0000148806870470000000000200248816811
:1004B0000278114481607047000000200B4810B59D
:1004C000016841F400710160016841F480610160DC
:1004D000016841F480710160032000F081F8002080
:1004E00000F006F800F024F8002010BD003C0240A7
:1004F00070B50D4D04464FF47A712878B1FBF0F0D9
:100500000A490968B1FBF0F000F0E7FA48B9102C8D
:1005100007D200222146501E00F042F800206C60F5
:1005200070BD012070BD0000000000200C00002004
:1005300010B5032000F054F8002211466FF00B00B4
:1005400000F02EF8002211466FF00A0000F028F8A3
:10055000002211466FF0090000F022F80022114637
:10056000501F00F01DF800221146101F00F018F86F
:1005700000221146901E00F013F80022BDE8104042
:100580001146501E00F00CB800F01F0201219140EE
:100590004009800000F1E020C0F800117047000021
:1005A000F0B40E4B1B680C46C3F30223C3F10705DE
:1005B000042D00D90425191D072901D2002300E0CC
:1005C000DB1E012606FA05F1491E214099409E4096
:1005D000761E16403143F0BC00F056BD0CED00E035
:1005E000064900F0070208684FF6FF03184040EA8A
:1005F0000220034A10430860704700000CED00E041
:100600000000FA052DE9F0470E46050065D0DFF839
:100610001481D8F80000F7B200F00F00B04207D202
:1006200088F80070D8F8000000F00F00B04254D1F4
:1006300028683D4C810712D5400703D5206840F457
:10064000E05020602878000703D5206840F460401F
:1006500020602068A96820F0F00008432060287816
:10066000C0072DD0304968680839012812D0022807
:1006700013D0032811D00968890700292DDA2168D1
:1006800021F0030101432160FFF70AFF814641F297
:10069000883A0EE009688903EFE709688901ECE709
:1006A000FFF7FEFEA0EB0901514502D90320BDE88A
:1006B000F0872068696800F00C00B0EB810FEFD183
:1006C000D8F80010404601F00F01B14207D9077079
:1006D000006800F00F00B04201D00120E7E7287861
:1006E000400705D52068E96820F4E0500843206001
:1006F0002878000706D52068296920F4604040EA80
:10070000C100206000F01CF82168084AC1F3031101
:10071000515CC840064908600020FFF7E9FE002050
:10072000C5E70000003C0240083802408814000879
:100730000C00002001480068704700000C000020F9
:10074000154810B5006810F00C02144813D0144975
:10075000042A0FD0082A0ED10F4C241F22682368C8
:1007600002F03F025B0207D52068C0F38810A0FBAF
:10077000010106E0084610BD2168C1F38811A1FB04
:1007800000010023FFF722FD2168C1F30141491C4C
:100790004900B0FBF1F010BD083802400024F4001D
:1007A00040787D012DE9F84F050076D02878DFF8F4
:1007B000F8B2BE4CC00749D0DBF800105846C1F370
:1007C0008101012908D00068C0F3810002280AD104
:1007D000201D0068400206D52068800336D5686871
:1007E0000028E2D032E06868B0F5803F10D0B0F564
:1007F000A02F206810D020F480302060206820F4E2
:10080000802020606868A0B1FFF74AFE06460CE031
:10081000206840F48030F4E740F480202060F7E75F
:10082000FFF73EFE801B642873D820688003F7D54D
:100830000CE0FFF735FE064605E000BFFFF730FE8F
:10084000801B6428F0D820688003F7D42878DFF86C
:10085000608280074FF000093ED5DBF80010584653
:1008600011F00C0F09D00068C0F3810002280BD1F1
:100870008D48001F0068400206D42068800715D507
:10088000E868012809D111E0E868B8B10120C8F88A
:100890000000FFF705FE064605E002E1FFF700FE57
:1008A000801B0228C0D820688007F7D520682969F6
:1008B00020F0F80040EAC10020600DE0C8F8009088
:1008C000FFF7EEFD064604E0FFF7EAFD801B022875
:1008D0001FD820688007F7D42878000722D5724EE9
:1008E000744869696C3671B101210160FFF7D8FD68
:1008F000074604E0FFF7D4FDC01B022809D8306882
:100900008007F7D50EE0C0F80090FFF7C9FD074655
:1009100005E083E0FFF7C4FDC01B02287ED83068E5
:100920008007F7D42878400768D5DFF87CA1002736
:100930000AF1380ADAF80000C0000BD4DAF8001027
:1009400041F08051CAF80010DAF80000012700F0E9
:1009500080500090584E3068C00510D4306840F484
:1009600080703060FFF79CFD009005E0FFF798FD78
:100970000099401A022851D83068C005F6D54A4E71
:10098000A868683601280FD00528306810D020F0FC
:1009900001003060306820F004003060A868B8B111
:1009A000FFF77EFD00900FE0306840F00100F4E7B3
:1009B00040F004003060F7E7FFF772FD0099411A3C
:1009C00041F28830814264D830688007F4D50EE067
:1009D000FFF766FD009007E0FFF762FD0099411AFE
:1009E00041F28830814254D830688007F4D42FB166
:1009F000DAF8001021F08051CAF80010A869C0B3DD
:100A0000DBF80010C1F3810102294AD002284846D0
:100A100007D0C8F86000FFF743FD00E039E0054665
:100A20003AE04746C8F86000FFF73AFD064604E0A2
:100A3000FFF736FD801B02282BD820688001F7D4F1
:100A4000D5E907010843A96A1C4A490802EB01419C
:100A50006A6A41EA8211084395F82C1040EA016164
:100A60001148001F016001203866FFF719FD054697
:100A700005E014E0FFF714FD401B022809D82068A8
:100A80008001F7D50BE000BFFFF70AFD401B0228ED
:100A900002D90320BDE8F88F20688001F4D400203B
:100AA000F8E70120F6E7000008380240003802406D
:100AB00000004742800E4742007000400000FFFFE8
:100AC0004FF0E0210428086903D020F004000861F9
:100AD000704740F00400FAE7704710B5401EB0F1CF
:100AE000807F01D3012010BD4FF0E02460610F2111
:100AF000601700F0C9FA0020A061072020610020E3
:100B000010BD10B5FFF7E8FF10BD7047704730B556
:100B100090F83820012A20D0012280F838200223C2
:100B200080F8393003685C6824F070045C60036806
:100B30005C680D682C435C6003689C6824F080044A
:100B40009C6003689C6849680C439C6080F839206D
:100B5000002180F83810084630BD022030BD10B5A5
:100B6000040003D094F8390010B107E0012010BD53
:100B7000002084F83800204600F00CF8022084F8A9
:100B80003900211D206800F033FB012084F8390072
:100B9000002010BD08B5154A0168154891420ED1D4
:100BA000016841F0020101600068002200F00200CB
:100BB00000900F211D20FFF7F3FC1D2010E00D4ACF
:100BC000914211D1016841F00401016000680022E6
:100BD00000F00400009004211E20FFF7E1FC1E201D
:100BE000BDE80840FFF7D0BC08BD0000000400408D
:100BF00040380240000800400168CA6842F0010223
:100C0000CA600068016841F001010160002070477E
:100C100070B5044690F83800012817D0012584F8F3
:100C20003850022084F839002068826822F0770268
:100C300022F47F4282600868502837D00DDC2028DB
:100C400059D005DC88B3102841D151E0022070BD95
:100C5000302853D040283AD13FE060282ED0702869
:100C60000BD0B0F5805F03D0B0F5005F2FD110E05E
:100C70002068816821F0070115E0CB68D1E90121E6
:100C8000206800F0FDFA2168886840F077008860ED
:100C90001DE0CB68D1E90121206800F0F1FA20685D
:100CA000816841F48041816011E01EE0CA684968B2
:100CB000206800F0F7FA5021206806E0CA68496809
:100CC000206800F000FB6021206800F0E3FA84F85F
:100CD0003950002084F8380070BDCA68496820681F
:100CE00000F0E0FA40212068EFE700212068ECE7FF
:100CF00010212068E9E720212068E6E730212068FC
:100D0000E3E7704770B50446006801694FF00005DD
:100D1000C943890715D4C168C943890711D4E91E9D
:100D2000016101202076206880698007204602D07A
:100D3000FFF7E7FF04E000F098F8204600F096F88F
:100D4000257620680169C943490717D4C168C9439A
:100D5000490713D46FF00401016102202076206856
:100D6000806910F4407F204602D0FFF7CAFF04E0FC
:100D700000F07BF8204600F079F8257620680169BC
:100D8000C943090716D4C168C943090712D46FF0D3
:100D900008010161042020762068C0698007204690
:100DA00002D0FFF7AEFF04E000F05FF8204600F04D
:100DB0005DF8257620680169C943C90617D4C16862
:100DC000C943C90613D46FF01001016108202076D1
:100DD0002068C06910F4407F204602D0FFF791FFE1
:100DE00004E000F042F8204600F040F82576206844
:100DF0000169C943C90708D1C168C943C90704D1FA
:100E0000891E0161204600F032F820680169C9435B
:100E1000090609D4C168C943090605D46FF08001E9
:100E200001612046FFF771FE20680169C943490648
:100E300009D4C168C943490605D46FF04001016176
:100E4000204600F015F820680169C94389060BD4D3
:100E5000C168C943890607D46FF0200101612046AB
:100E6000BDE87040FFF752BE70BD704770477047D5
:100E70007047FEE72DE9F04F514887B00024016824
:100E800041F010010160016801F010010591016855
:100E900041F004010160016801F00401059101685D
:100EA00041F080010160016801F080010591016855
:100EB00041F001010160016801F001010591016843
:100EC00041F002010160016801F002010591016831
:100ED00041F0080101600068DFF8E89000F00800C8
:100EE0000590012202214846FFF7D5FADFF8D8A085
:100EF00000220F215046FFF7CEFADFF8D0B00122D2
:100F00000F215846FFF7C7FA4FF6FF780325CDF8B3
:100F10000080CDE9015469462D48FFF7EFF94FF6FF
:100F2000FC70CDE90005694602944846FFF7E6F9F2
:100F300028480126CDE90060022769460297484605
:100F4000FFF7DCF90097CDE9016469464846039450
:100F5000FFF7D4F90F270097CDE9016469465046A1
:100F60000394FFF7CBF94FF6F070CDE90005694621
:100F700002945046FFF7C2F90097CDE90164694633
:100F800058460394FFF7BAF94FF2F070CDE9000527
:100F9000694602945846FFF7B1F9CDF80080CDE9D3
:100FA000015469460C48FFF7A9F9002211460620B2
:100FB000FFF7F6FA0620FFF7E7FA07B0BDE8F08F73
:100FC00030380240000802400000024000040240A5
:100FD0000010024000001110000C024010B5134830
:100FE00086B01149016031210024C0E901144FF499
:100FF0009651C0E90314FFF7B2FD00B1FEE74FF4CC
:101000008050009069460948FFF702FE00B1FEE7F4
:10101000049404A905480594FFF779FD002800D041
:10102000FEE706B010BD00000004004018000020DC
:1010300010B5134886B01149016040F69F71002435
:10104000C0E901144FF49651C0E90314FFF787FD7E
:1010500000B1FEE74FF48050009069460848FFF762
:10106000D7FD00B1FEE7049404A905480594FFF7F5
:101070004EFD002800D0FEE706B010BD000800407D
:1010800054000020FEE770470907090E002806DA21
:1010900000F00F0000F1E02080F8141D704700F10F
:1010A000E02080F8001470477047704710B5FFF7D4
:1010B000FDF9BDE81040FFF724BD000030B51F4822
:1010C00093B00024016841F080510160006800F095
:1010D000805011901A48016821F4404141F40041C8
:1010E00001600068012500F4404011902804069436
:1010F000CDE900506846FFF755FB00B1FEE70F2031
:101100000C90CDE90D540F9400210CA81094FFF71A
:1011100079FA00B1FEE7FFF70DFB4FF47A71B0FBEF
:10112000F1F0FFF7DAFC0420FFF7CAFC00221146B9
:10113000501EFFF735FA13B030BD000040380240B2
:10114000007000401048016841F4700101600F48D0
:10115000016841F0010101600C4A00210832116070
:1011600002680B4B1A400260031D0A4A1A600268AB
:1011700022F48022026005480C30016002495806C2
:10118000803908607047000088ED00E000380240B8
:10119000FFFFF6FE1030002410B50648FFF7B2FD41
:1011A00000F0D6F804480178491C01F00301016001
:1011B00010BD0000180000201000002010B50948E4
:1011C000FFF7A0FD08484FF4FA624168491CB1FBE3
:1011D000F2F302FB13114160BDE810400221034805
:1011E000FFF755B95400002010000020000802400D
:1011F000F0B502681B4B1C4C9F031C4D1C4E9842C3
:1012000007D0B84205D0A04203D0A84201D0B042D6
:1012100004D122F0700C4A6842EA0C02984210D0C5
:10122000B8420ED0A0420CD0A8420AD0B04208D09A
:10123000104CA04205D0104CA04202D00F4CA0424E
:1012400003D122F44074CA68224302608A68C262F1
:101250000A688262984201D10969016301214161F2
:10126000F0BD000000000140000400400008004004
:10127000000C004000400140004401400048014093
:1012800010B5846842EA032224F47F440A432243CF
:10129000826010BD826822F070020A4342F00701AA
:1012A0008160704710B5036A046A24F00104046287
:1012B000846924F0F00444EA021423F00A020A4389
:1012C0008461026210BD10B5036A23F0100303624B
:1012D0008369046A23F4704343EA023224F0A003D2
:1012E00043EA01118261016210BDFEE702E008C815
:1012F000121F08C1002AFAD170477047002001E090
:1013000001C1121F002AFBD1704700002DE9F041F6
:101310000E4F00F00106C0F34005C0F38004C0F397
:10132000C00201213846FFF7B6F8224602213846AE
:10133000FFF7B1F82A4604213846FFF7ACF83246E9
:101340003846BDE8F0410821FFF7A5B80004024087
:1013500070B5434D434C286830B3012842D0022871
:101360005ED003287BD1002208212046FFF793F8A6
:10137000002204212046FFF78EF800220221204699
:10138000FFF789F8012211462046FFF784F8012172
:101390002046FFF777F80028F9D1A888C0F303307A
:1013A000BDE87040FFF7B2BF012208212046FFF7D9
:1013B00072F8002204212046FFF76DF80022022176
:1013C0002046FFF768F8002201212046FFF763F866
:1013D00008212046FFF756F80028F9D1287900F0B7
:1013E0000F00DDE7002208212046FFF754F8012214
:1013F00004212046FFF74FF8002202212046FFF784
:101400004AF8002201212046FFF745F80421204632
:10141000FFF738F80028F9D12879C0F30310BFE7A7
:10142000002208212046FFF736F80022042120463A
:10143000FFF731F8012202212046FFF72CF80022A5
:1014400001212046FFF727F802212046FFF71AF86E
:101450000028F9D1A888C0F30320A1E7FFE770BDF9
:101460001000002000000240FFF728F8FFF726FEDA
:10147000FFF700FDFFF7DCFDFFF7B0FD0148FFF7C8
:10148000BBFBFEE75400002000000000000000004D
:101490000102030406070809B81400080000002030
:1014A00018000000EC120008D014000818000020FA
:1014B00078040000FC120008010000001000000089
:1014C000000000000024F400000000000000000004
:040000050800019559
:00000001FF
