:020000040800F2
:10000000B8040020A90100086B110008B70E000811
:1000100069110008A1020008571400080000000040
:100020000000000000000000000000008F11000828
:10003000A3020008000000008D11000891110008C3
:10004000C3010008C3010008C3010008C301000880
:10005000C3010008C3010008A5020008C30100088D
:10006000C3010008C3010008D9020008C301000849
:10007000C3010008C3010008C3010008C301000850
:10008000C3010008C3010008C3010008000000000C
:10009000000000000000000000000000DF02000877
:1000A000C3010008C3010008C3010008C301000820
:1000B000C30100088112000895120008C30100085E
:1000C000C3010008C3010008C3010008C301000800
:1000D000C3010008C3010008C301000800000000BC
:1000E000C3010008C3010008C301000800000000AC
:1000F000000000000000000000000000C301000834
:1001000000000000C3010008C3010008C30100088B
:1001100000000000000000000000000000000000DF
:10012000C3010008C3010008C3010008C30100089F
:10013000C3010008000000000000000000000000F3
:10014000000000000000000000000000C3010008E3
:10015000C3010008C3010008C3010008C30100086F
:10016000C3010008C30100080000000000000000F7
:10017000000000000000000000000000000000007F
:1001800000000000C30100080000000000000000A3
:10019000C3010008DFF80CD000F070F800480047F9
:1001A00039180008B8040020064880470648004770
:1001B000FEE7FEE7FEE7FEE7FEE7FEE7FEE7FEE717
:1001C000FEE7FEE72D120008950100082DE9F05F1B
:1001D0000546002092469B468846064681464024B6
:1001E0001BE0284641464746224600F036F8534673
:1001F0005A46C01A914110D311461846224600F0C3
:100200001DF82D1A67EB01084F46224601200021F8
:1002100000F014F817EB00094E41201EA4F1010470
:10022000DFDC484631462A464346BDE8F09F421C83
:1002300010F8011B0029FBD1801A7047202A04DB2B
:10024000203A00FA02F1002070479140C2F12003E9
:1002500020FA03F3194390407047202A04DB203A28
:1002600021FA02F00021704721FA02F3D040C2F1D6
:10027000200291400843194670470000064C074D84
:1002800006E0E06840F0010394E807009847103466
:10029000AC42F6D3FFF782FFD0190008F01900082E
:1002A000FEE7704710B5012000F042F8074881785A
:1002B000002909D101218170054800F0BFFCBDE88B
:1002C0001040044800F0BABC10BD0000100000202F
:1002D0002C00002068000020102000F029B810B584
:1002E000202000F025F8402000F022F8802000F0C7
:1002F0001FF84FF4807000F01BF8BDE810404FF479
:10030000007000F015B8000070B5044600F0EAF87F
:100310000546601C02D004480078044400F0E2F86E
:10032000401BA042FAD370BD0000002070470000BF
:10033000044910B50A68024202D00860FFF7F6FFD0
:1003400010BD0000143C01402DE9F84FDFF860B10A
:1003500000224FF001084FF0030A4FF00F090BF194
:10036000040E00BF0B6808FA02F42340A3426ED1CA
:100370004D68022D01D0122D0ED1D50800EB850C51
:10038000DCF820505607F70E09FA07F6B5430E6958
:10039000BE402E43CCF82060066855000F790AFA5B
:1003A00005FC07F0030726EA0C06AF403743076059
:1003B0004E68012E05D0022E03D0112E01D0122E30
:1003C0000ED18668CF6826EA0C06AF4037438760B7
:1003D0004668A6430C79C4F3001494403443446047
:1003E000C6688C6826EA0C06AC403443C4604C688E
:1003F000E40056D52F4C256845F4804525602468D7
:1004000022F0030504F4804400942B4C2E19D6F8F6
:10041000084895072F0F09FA07F5AC43274DA84266
:1004200001D1002515E0264DA84201D1012510E09B
:10043000244DA84201D102250BE0234DA84201D151
:10044000032506E0214DA84202D1042501E028E061
:100450000725BD402543C6F80858DBF800405D4637
:100460004E689C43F60300D51C432C60DEF8004028
:1004700075464E689C43B60300D51C432C600C4D5A
:1004800008352C684E689C43F60200D51C432C604E
:10049000074D0C352C684E689C43B60200D51C43B2
:1004A0002C60521C102AFFF45DAFBDE8F88F0000ED
:1004B000003C01404438024000300140000002404E
:1004C0000004024000080240000C024000100240FC
:1004D00042694A40426170470AB18161704709042C
:1004E000FBE7000001488068704700000000002022
:1004F0000248816802781144816070470000002042
:100500000B4810B5016841F400710160016841F4C5
:1005100080610160016841F480710160032000F096
:1005200081F8002000F006F800F024F8002010BD4B
:10053000003C024070B50D4D04464FF47A712878A6
:10054000B1FBF0F00A490968B1FBF0F000F0E7FAFE
:1005500048B9102C07D200222146501E00F042F864
:1005600000206C6070BD012070BD00000000002004
:100570000C00002010B5032000F054F800221146B2
:100580006FF00B0000F02EF8002211466FF00A0009
:1005900000F028F8002211466FF0090000F022F860
:1005A00000221146501F00F01DF800221146101FB6
:1005B00000F018F800221146901E00F013F80022F7
:1005C000BDE810401146501E00F00CB800F01F02AC
:1005D000012191404009800000F1E020C0F80011A5
:1005E00070470000F0B40E4B1B680C46C3F30223A7
:1005F000C3F10705042D00D90425191D072901D2CF
:10060000002300E0DB1E012606FA05F1491E214009
:1006100099409E40761E16403143F0BC00F0A6BDC6
:100620000CED00E0064900F0070208684FF6FF03F2
:10063000184040EA0220034A104308607047000057
:100640000CED00E00000FA052DE9F0470E4605002C
:1006500065D0DFF81481D8F80000F7B200F00F0081
:10066000B04207D288F80070D8F8000000F00F0000
:10067000B04254D128683D4C810712D5400703D5BC
:10068000206840F4E05020602878000703D52068F7
:1006900040F4604020602068A96820F0F000084322
:1006A00020602878C0072DD03049686808390128B3
:1006B00012D0022813D0032811D009688907002915
:1006C0002DDA216821F0030101432160FFF70AFFC1
:1006D000814641F2883A0EE009688903EFE709682C
:1006E0008901ECE7FFF7FEFEA0EB0901514502D9B5
:1006F0000320BDE8F0872068696800F00C00B0EBCB
:10070000810FEFD1D8F80010404601F00F01B1423F
:1007100007D90770006800F00F00B04201D0012037
:10072000E7E72878400705D52068E96820F4E0501D
:10073000084320602878000706D52068296920F43E
:10074000604040EAC100206000F01CF82168084ABF
:10075000C1F30311515CC840064908600020FFF74F
:10076000E9FE0020C5E70000003C024008380240D6
:10077000C01900080C000020014800687047000004
:100780000C000020154810B5006810F00C02144849
:1007900013D01449042A0FD0082A0ED10F4C241F5D
:1007A0002268236802F03F025B0207D52068C0F38D
:1007B0008810A0FB010106E0084610BD2168C1F3C6
:1007C0008811A1FB00010023FFF700FD2168C1F3A0
:1007D0000141491C4900B0FBF1F010BD083802404E
:1007E0000024F40040787D012DE9F84F050076D013
:1007F0002878DFF8F8B2BE4CC00749D0DBF800100B
:100800005846C1F38101012908D00068C0F3810076
:1008100002280AD1201D0068400206D52068800306
:1008200036D568680028E2D032E06868B0F5803FCD
:1008300010D0B0F5A02F206810D020F480302060B8
:10084000206820F4802020606868A0B1FFF74AFE8D
:1008500006460CE0206840F48030F4E740F4802045
:100860002060F7E7FFF73EFE801B642873D82068FE
:100870008003F7D50CE0FFF735FE064605E000BF24
:10088000FFF730FE801B6428F0D820688003F7D47F
:100890002878DFF8608280074FF000093ED5DBF84A
:1008A0000010584611F00C0F09D00068C0F3810009
:1008B00002280BD18D48001F0068400206D4206832
:1008C000800715D5E868012809D111E0E868B8B1BA
:1008D0000120C8F80000FFF705FE064605E002E12A
:1008E000FFF700FE801B0228C0D820688007F7D5DC
:1008F0002068296920F0F80040EAC10020600DE07E
:10090000C8F80090FFF7EEFD064604E0FFF7EAFDA9
:10091000801B02281FD820688007F7D4287800079A
:1009200022D5724E744869696C3671B1012101603B
:10093000FFF7D8FD074604E0FFF7D4FDC01B0228EF
:1009400009D830688007F7D50EE0C0F80090FFF7AF
:10095000C9FD074605E083E0FFF7C4FDC01B022880
:100960007ED830688007F7D42878400768D5DFF84C
:100970007CA100270AF1380ADAF80000C0000BD485
:10098000DAF8001041F08051CAF80010DAF80000DF
:10099000012700F080500090584E3068C00510D4F8
:1009A000306840F480703060FFF79CFD009005E0F7
:1009B000FFF798FD0099401A022851D83068C00509
:1009C000F6D54A4EA868683601280FD00528306849
:1009D00010D020F001003060306820F0040030605A
:1009E000A868B8B1FFF77EFD00900FE0306840F0D6
:1009F0000100F4E740F004003060F7E7FFF772FD14
:100A00000099411A41F28830814264D830688007E9
:100A1000F4D50EE0FFF766FD009007E0FFF762FDFA
:100A20000099411A41F28830814254D830688007D9
:100A3000F4D42FB1DAF8001021F08051CAF8001078
:100A4000A869C0B3DBF80010C1F3810102294AD0C4
:100A50000228484607D0C8F86000FFF743FD00E0D1
:100A600039E005463AE04746C8F86000FFF73AFD2E
:100A7000064604E0FFF736FD801B02282BD82068CD
:100A80008001F7D4D5E907010843A96A1C4A49083F
:100A900002EB01416A6A41EA8211084395F82C1081
:100AA00040EA01611148001F016001203866FFF72C
:100AB00019FD054605E014E0FFF714FD401B022870
:100AC00009D820688001F7D50BE000BFFFF70AFDC9
:100AD000401B022802D90320BDE8F88F206880015E
:100AE000F4D40020F8E70120F6E7000008380240BF
:100AF0000038024000004742800E4742007000402C
:100B00000000FFFF4FF0E0210428086903D020F027
:100B100004000861704740F00400FAE7704710B520
:100B2000401EB0F1807F01D3012010BD4FF0E024C2
:100B300060610F21601700F019FB0020A061072001
:100B40002061002010BD10B5FFF7E8FF10BD704711
:100B5000704730B590F83820012A20D0012280F863
:100B60003820022380F8393003685C6824F0700470
:100B70005C6003685C680D682C435C6003689C687B
:100B800024F080049C6003689C6849680C439C6066
:100B900080F83920002180F83810084630BD022046
:100BA00030BD10B5040003D094F8390010B107E04F
:100BB000012010BD002084F83800204600F00CF819
:100BC000022084F83900211D206800F0C7FB0120B5
:100BD00084F83900002010BD08B5154A0168154891
:100BE00091420ED1016841F00201016000680022CB
:100BF00000F0020000900F211D20FFF7F3FC1D20E4
:100C000010E00D4A914211D1016841F004010160E8
:100C10000068002200F00400009004211E20FFF76D
:100C2000E1FC1E20BDE80840FFF7D0BC08BD000075
:100C30000004004040380240000800400168CA68D3
:100C400042F00102CA600068016841F001010160E0
:100C50000020704770B5044690F83800012817D07E
:100C6000012584F83850022084F839002068826811
:100C700022F0770222F47F4282600868502837D041
:100C80000DDC202859D005DC88B3102841D151E073
:100C9000022070BD302853D040283AD13FE0602870
:100CA0002ED070280BD0B0F5805F03D0B0F5005F78
:100CB0002FD110E02068816821F0070115E0CB6892
:100CC000D1E90121206800F091FB2168886840F09B
:100CD000770088601DE0CB68D1E90121206800F031
:100CE00085FB2068816841F48041816011E01EE04D
:100CF000CA684968206800F08BFB5021206806E034
:100D0000CA684968206800F094FB6021206800F000
:100D100077FB84F83950002084F8380070BDCA6829
:100D20004968206800F074FB40212068EFE700214B
:100D30002068ECE710212068E9E720212068E6E739
:100D400030212068E3E7704770B504460068016908
:100D50004FF00005C943890715D4C168C943890705
:100D600011D4E91E01610120207620688069800786
:100D7000204602D0FFF7E7FF04E000F098F8204695
:100D800000F096F8257620680169C943490717D411
:100D9000C168C943490713D46FF0040101610220FF
:100DA00020762068806910F4407F204602D0FFF74B
:100DB000CAFF04E000F07BF8204600F079F82576C1
:100DC00020680169C943090716D4C168C9430907E6
:100DD00012D46FF008010161042020762068C069F8
:100DE0008007204602D0FFF7AEFF04E000F05FF876
:100DF000204600F05DF8257620680169C943C906E0
:100E000017D4C168C943C90613D46FF0100101613A
:100E1000082020762068C06910F4407F204602D068
:100E2000FFF791FF04E000F042F8204600F040F8A0
:100E3000257620680169C943C90708D1C168C9433B
:100E4000C90704D1891E0161204600F032F82068EC
:100E50000169C943090609D4C168C943090605D413
:100E60006FF0800101612046FFF771FE2068016983
:100E7000C943490609D4C168C943490605D46FF07E
:100E800040010161204600F015F820680169C9435E
:100E900089060BD4C168C943890607D46FF02001C5
:100EA00001612046BDE87040FFF752BE70BD70473B
:100EB000704770477047FEE7F0B589B00C460F49A0
:100EC000DDE9106591F800E00021DDE90EC705912C
:100ED0000691CDE9003C079108911346BEF1000F41
:100EE00002972246014601D0012000E00020CDE912
:100EF000036500F04DFC09B0F0BD000018000020B3
:100F00002DE9F04F674887B00024016841F01001D7
:100F10000160016801F010010591016841F00401D0
:100F20000160016801F004010591016841F0800150
:100F30000160016801F080010591016841F0010143
:100F40000160016801F001010591016841F00201B1
:100F50000160016801F002010591016841F008019A
:100F600001600068DFF8409100F008000590012260
:100F700002214846FFF7B0FADFF830B100220F2116
:100F80005846FFF7A9FA01220F214948FFF7A4FAB2
:100F90004FF4FE4A002251464648FFF79DFA4FF6AD
:100FA000FF700325CDE90005694602944248FFF72A
:100FB000CBF94FF6FC70CDE900056946029448462E
:100FC000FFF7C2F9DFF8F4800126CDE900680227B7
:100FD000694648460297FFF7B7F90097CDE90164E3
:100FE000694648460394FFF7AFF94FF00F09CDF873
:100FF0000090CDE90164694658460394FFF7A4F9CF
:101000004FF6F070CDE90005694602945846FFF7A7
:101010009BF9CDF80090CDE901646946244803941A
:10102000FFF792F94FF47440CDE900056946029448
:101030001F48FFF789F9CDF800A0CDE901646946A2
:101040001C480394FFF780F948F2FF00CDE9000542
:10105000694602941748FFF777F94FF47C70CDE9A1
:101060000008694602971248FFF76EF90022114600
:101070000620FFF7B7FA0620FFF7A8FA002211466C
:101080000A20FFF7AFFA0A20FFF7A0FA0022114664
:101090001720FFF7A7FA1720FFF798FA07B0BDE867
:1010A000F08F00003038024000080240000002408B
:1010B00000040240000C0240001002400000111029
:1010C00010B5134886B01149016040F23F61002419
:1010D000C0E901144FF49671C0E90314FFF761FDF4
:1010E00000B1FEE74FF48050009069460848FFF7D2
:1010F000B1FD00B1FEE7049404A905480594FFF78B
:1011000028FD002800D0FEE706B010BD0004004016
:101110002C00002010B5134886B01149016040F240
:101120003F610024C0E9011440F6C411C0E9031472
:10113000FFF737FD00B1FEE74FF48050009069469D
:101140000848FFF787FD00B1FEE7049404A90548AD
:101150000594FFF7FEFC002800D0FEE706B010BDA6
:101160000008004068000020FEE770470907090EEC
:10117000002806DA00F00F0000F1E02080F8141DCE
:10118000704700F1E02080F8001470477047704706
:1011900010B5FFF7ADF9BDE81040FFF7D4BC000073
:1011A00010B5204892B00024016841F080510160E0
:1011B000006800F0805011901B48016821F4404104
:1011C00041F4004101600068069400F44040119031
:1011D0000220009001200390102004906846FFF741
:1011E00003FB00B1FEE70F20CDE90C040E940F9431
:1011F00000210CA81094FFF727FA00B1FEE7FFF7D3
:10120000BBFA4FF47A71B0FBF1F0FFF788FC0420D1
:10121000FFF778FC00221146501EFFF7E3F912B0E9
:1012200010BD0000403802400070004010480168C6
:1012300041F4700101600F48016841F00101016053
:101240000C4A00210832116002680B4B1A40026000
:10125000031D0A4A1A60026822F4802202600548CF
:101260000C30016002495806803908607047000060
:1012700088ED00E000380240FFFFF6FE1030002449
:1012800010B50348FFF760FDBDE8104000F0C6B997
:101290002C00002010B52848FFF756FD274C606849
:1012A000401E606004D0052813D0142802D03DE011
:1012B0001420606021780320491CB1FBF0F200FB90
:1012C000121121706178491CB1FBF0F200FB121081
:1012D00007E02178012011B1617811B102E020709E
:1012E00000E060700021172000F018FB207820B18A
:1012F000012804D0022805D10FE011A000E012A0BF
:1013000000F0B8FA0121192000F008FB607830B134
:10131000012806D0022809D105E00DA0F0E708A0B9
:1013200002E009A000E00AA000F0A4FABDE8104025
:1013300002210948FFF7CCB8680000201000002007
:10134000475245454E20000059454C4C4F57000030
:10135000524544202020000000080240F0B50268F9
:101360001B4B1C4C9F031C4D1C4E984207D0B8428F
:1013700005D0A04203D0A84201D0B04204D122F04F
:10138000700C4A6842EA0C02984210D0B8420ED063
:10139000A0420CD0A8420AD0B04208D0104CA042C3
:1013A00005D0104CA04202D00F4CA04203D122F431
:1013B0004074CA68224302608A68C2620A68826214
:1013C000984201D10969016301214161F0BD00002A
:1013D000000001400004004000080040000C0040F4
:1013E00000400140004401400048014010B58468BD
:1013F00042EA032224F47F440A432243826010BD60
:10140000826822F070020A4342F00701816070474F
:1014100010B5036A046A24F001040462846924F0AC
:10142000F00444EA021423F00A020A4384610262CF
:1014300010BD10B5036A23F0100303628369046AC8
:1014400023F4704343EA023224F0A00343EA01117B
:101450008261016210BDFEE702E008C8121F08C1E8
:10146000002AFAD170477047002001E001C1121F25
:10147000002AFBD17047000030B54B4C85B00D46BB
:10148000012903D9A17841F00801A17000F14003BE
:10149000024665714021002000F054FA607828B1BE
:1014A000012D03D1A07840F00400A07000F026F9CF
:1014B000012002250190039521783C480029E2880B
:1014C0000188638941EA0201228942EA030241EA72
:1014D0000201428841EA0201828841EA020101D008
:1014E000C08808E0C2881143028911434289114330
:1014F0008289C0891143014300916946E068FEF783
:1015000023FF3220FEF700FF0022E188E068FEF7AB
:10151000E3FF00226189E068FEF7DEFF2189FF29F1
:1015200003D00022E068FEF7D7FFA078C10615D4EB
:10153000032000F011FA0520FEF7E6FE032000F07C
:101540000BFA0520FEF7E0FE032000F005FA01206B
:10155000FEF7DAFE022000F0FFF913E040F0200071
:1015600000F02FF80520FEF7CFFEA07840F0200015
:1015700000F027F80120FEF7C7FEA07840F0200019
:1015800000F01FF8A07840F0200000F01AF80420C6
:10159000E07000F0A7F800F00BF82571062000F0CD
:1015A00010F805B030BD000018000020A400002095
:1015B00010B5012000F005F8BDE810400220FEF74C
:1015C000A3BE002100F088B92DE9F04110F001061A
:1015D00000F0020500F0040400F0080200D001262B
:1015E00005B1012504B1012402B101220A4F0121F4
:1015F0003846FEF771FF224602213846FEF76CFF9F
:101600002A4604213846FEF767FF32463846BDE8D1
:10161000F0410821FEF760BF000402402DE9F041CF
:101620002E48032644680178254611B1407810B150
:1016300002E0641F00E0651FDFF8A48000220F2194
:101640004046FEF749FF01220E214046FEF744FFC7
:101650000A27B4FBF7F007FB1040FFF7B5FFB4FB18
:10166000F7F43046FEF750FE00220F214046FEF709
:1016700033FF01220D214046FEF72EFFB4FBF7F0A9
:1016800007FB1040FFF7A0FF3046FEF73DFE0022AB
:101690000F214046FEF720FF01220B214046FEF7B6
:1016A0001BFFB5FBF7F007FB1050FFF78DFFB5FBF5
:1016B000F7F43046FEF728FE00220F214046FEF7E1
:1016C0000BFF012207214046FEF706FFB4FBF7F0AF
:1016D00007FB1040BDE8F041FFF776BF1000002087
:1016E000000002400449C87840F00400C87040F08F
:1016F0000800FFF766BF0000180000201D4808B56D
:101700001D4AC1681D48914207D1016841F001019D
:101710000160006800F0010009E0194A914208D117
:10172000016841F002010160006800F002000090D1
:1017300008BD144A914207D1016841F004010160DB
:10174000006800F00400F2E70F4A914207D10168F7
:1017500041F008010160006800F00800E7E70B4A6B
:101760009142E5D1016841F010010160006800F08C
:101770001000DCE718000020000002403038024072
:101780000004024000080240000C02400010024029
:101790002DE9F05F0AAC94E8E05F0F4CE280238112
:1017A0006581E1600D490E804F80A1F80480A1F8A9
:1017B0000690A1F808A0A1F80AB0A1F80CC0A1F801
:1017C0000EE008B1002000E01020A070BDE8F05F3E
:1017D00002211020FFF750BE18000020A4000020B6
:1017E00010B50021084600F099F806A000F042F874
:1017F0000121002000F092F8BDE8104007A000F0A1
:1018000039B8000046697273742074726166666943
:1018100063206C6967687420697320005365636393
:101820006F6E642074726166666963206C696768B4
:1018300074206973200000001FB5FEF761FEFFF7FA
:10184000AFFCFFF75DFBFFF765FCFFF739FC4FF4DA
:1018500080435A10511048108DE80F004310821039
:10186000C1100348FFF728FBFFF7BAFFFEE70000AF
:10187000000C024070B500280FD00446FEF7D7FCDC
:101880000546002606E000BF14F8010B012100F018
:1018900023F8761C6D1EF7D2304670BD10B50D4C86
:1018A00000226189E068FEF717FE0120FEF72CFD9B
:1018B00001226189E068FEF70FFE0120FEF724FD9A
:1018C00000226189E068FEF707FEBDE810400120B4
:1018D000FEF71ABD1800002070B50F4C05460A46E9
:1018E000E188E068FEF7F8FD2189FF2903D0002296
:1018F000E068FEF7F1FDA078C00604D52846BDE8F3
:10190000704000F043B8280900F026F82846BDE8EA
:10191000704000F021B8000018000020042900D316
:101920000321074A5279914201D3521ED1B2044A8F
:101930001032515C0844C0B240F08000FFF741BE55
:101940001800002010B5034C20706170A270E37085
:1019500010BD0000280000202DE9F041094E0A4F7B
:101960000546002425FA04F000F0010236F81410B0
:10197000F868FEF7B1FD641C042CF3DBBDE8F04110
:10198000FFF78CBFA4000020180000202DE9F041D3
:10199000094E0A4F0546002425FA04F000F0010222
:1019A00036F81410F868FEF797FD641C082CF3DB7A
:1019B000BDE8F041FFF772BFA4000020180000202E
:1019C00000000000000000000102030406070809EF
:1019D000F0190008000000202C0000005814000836
:1019E0001C1A00082C0000208C0400006814000859
:1019F0000100000010000000000000000024F400BE
:101A000000020000140000000100000000000000BF
:0C1A1000000000000000000000000000CA
:040000050800019559
:00000001FF
